:020000040800F2
:1000000000000220450B00088D0B00088D0B000836
:100010008D0B00088D0B00088D0B00080000000000
:100020000000000000000000000000008D0B000830
:100030008D0B0008000000008D0B00088D0B0008E0
:100040008D0B00088D0B00088D0B00088D0B000830
:100050008D0B00088D0B00088D0B00088D0B000820
:100060008D0B00088D0B00088D0B00088D0B000810
:100070008D0B00088D0B00088D0B00088D0B000800
:100080008D0B00088D0B00088D0B00088D0B0008F0
:100090008D0B00088D0B00088D0B00088D0B0008E0
:1000A0008D0B00088D0B00088D0B00088D0B0008D0
:1000B0008D0B0008450300088D0B00088D0B000810
:1000C0008D0B00088D0B00088D0B00088D0B0008B0
:1000D0008D0B00088D0B0008C50200088D0B000871
:1000E0008D0B00088D0B00088D0B00088D0B000890
:1000F0008D0B00088D0B00088D0B00088D0B000880
:100100008D0B00088D0B00088D0B00088D0B00086F
:100110008D0B00088D0B00088D0B00088D0B00085F
:100120008D0B00088D0B00088D0B00088D0B00084F
:100130008D0B00088D0B00088D0B00088D0B00083F
:100140008D0B00088D0B00088D0B00088D0B00082F
:100150008D0B00088D0B00088D0B00088D0B00081F
:100160008D0B00088D0B00088D0B00088D0B00080F
:100170008D0B00088D0B00088D0B00088D0B0008FF
:080180008D0B00088D0B000837
:10018800044B05481B1A062B02D9044B03B1184728
:10019800704700BF4B040020480400200000000006
:1001A80005490648091A891001EBD171491002D096
:1001B800034B03B118477047480400204804002047
:1001C8000000000010B5064C237843B9FFF7D8FFAC
:1001D800044B13B10448AFF300800123237010BD12
:1001E8004804002000000000940E000808B5084BE1
:1001F8001BB108490848AFF300800848036813B9E1
:10020800BDE80840CCE7064B002BF9D09847F7E744
:10021800000000004C040020940E00084404002054
:1002280000000000154B002B08BF134B9D46A3F59B
:10023800803A00218B460F461348144A121A00F0E0
:10024800DBFC0F4B002B00D098470E4B002B00D047
:1002580098470020002104000D000D48002802D016
:100268000C4800F08DFD00F09FFC2000290000F0F4
:10027800B7FB00F089FC00BF000008000000000088
:100288000000000000000000480400207005002065
:10029800890D0008950D0008002882B041F25371BD
:1002A8000ADD019100E000BF019B5A1E002B01925C
:1002B800F9DC01380028F4DC02B070471C480388D8
:1002C80003F02803002B32D01A490B7882880B449C
:1002D800D2B21A710B780B441B79032B22D030B59C
:1002E8000A46154C09E0137885881344EDB21D7150
:1002F800137813441B79032B0ED00B780133A4FB1E
:1003080003E503EBD51303F0FF030B70038803F039
:100318002803002BE7D130BD012200230A7081F8A1
:10032800033130BD012200230A7081F80331704780
:10033800004400406404002081808080084B1B8AB0
:10034800DB0704D5074A536983F400435361044A21
:10035800138A23F001031B041B0C1382704700BF90
:1003680000040040000C0240F0B5654E96F80331D9
:1003780033441D79EDB21B2D5AD07F2D27D00D2D7A
:1003880001D00120F0BD5F4C5F4FA64623881B06B5
:10039800FCD5ADB2AEF8045017F8015F002DF5D1C9
:1003A800037823B1057010F8013F002BFAD1002023
:1003B8000870107096F80331544A0133A2FB0312F7
:1003C80003EBD21303F0FF0386F80331F0BD0D7879
:1003D8001378AB4279D0445D4CB16B1C0344471988
:1003E8001D1A07F8014C13F8014B002CF7D12844CB
:1003F800002300F8013C0878137838B1A3B101381C
:1004080008701378013BDBB21370087898420BDA56
:100418003C494FF020050C460B881F06FCD5A580EB
:10042800137801308342F7DC0120C6F80401F0BDDF
:1004380096F8033135480233A0FB034003EBD01391
:1004480003F0FF0386F8033196F8030133782C4C48
:100458009842F9D294F803311C442379DBB2432B38
:100468001FD0442B0FD1274A2948144613881B064E
:10047800FCD5ADB2A58010F8015F002DF6D10B7840
:100488000BB1013B0B7096F80331204A0133A2FBF4
:10049800031203EBD21303F0FF0386F803310020A5
:1004A800F0BD13780A789A42EDD2164A19481446D4
:1004B80013881F06FCD5ADB2A58010F8015F002D8A
:1004C800F6D10B7801330B70DDE7C4186478C45497
:1004D8000B7833B1107820B1013B0B701378013BD6
:1004E8001370084A0C4914461B2013881B06FCD5B8
:1004F80080B2A08011F8010F0028F6D15AE700BF9A
:1005080064040020004400406C0E00088180808054
:10051800780E0008700E0008800E000803782BB1D2
:100528000022027010F8013F002BFAD1704700BF7B
:100538002D492E4AF8B50F6B2D4C2E4B2E4E2F4DB4
:1005480047F001070F630F6C47F400370F64116819
:1005580041F020011160116841F080011160116AB9
:1005680041F4E0611162116A41F4E0411162A1892C
:1005780021F4805180000904B6FBF0F0A3FB0026AB
:10058800090C76096422A18102FB16000001228A67
:10059800A3FB001322F44052C3F34313120443EAAB
:1005A8000613120C9BB222822381A3899BB243F0CB
:1005B8000403A381A3899BB243F00803A381A38901
:1005C8009BB243F02003A381262100230122284661
:1005D8006B70AB702970EA7000F09EF9A3899BB22A
:1005E80043F40053A381F8BD0038024000000240E4
:1005F800004400401F85EB5180BA953E6C050020F1
:100608000549064A0B6B43F008030B63136843F074
:1006180080431360704700BF00380240000C02405E
:100628001649174A38B50B6C164C43F002030B6495
:10063800238800EB8000400023F0100380B21B04E5
:10064800002101381B0C42F2CF0523802585E0628A
:100658006162A38991709BB243F00103A3811D21BC
:10066800012310465370D370117000F055F9238898
:100678009BB243F00103238038BD00BF003802401D
:100688006C05002000040040017869B1074A10B4E5
:10069800144613881B06FCD589B2A18010F8011FE7
:1006A8000029F6D15DF8044B704700BF00440040B4
:1006B80003490B88024A1B06FBD580B2908070471D
:1006C8000044004010B4184B02781B8885B0ADF880
:1006D80004300023CDF80630CDF80A300AB30246BC
:1006E80012F8011F01330029FAD1C21801A912F822
:1006F800014D01F8014B8242F9D104AA1A440021A4
:10070800013B034402F80C1C02380DF1020212F8F6
:10071800011F00F8011F9842F9D105B05DF8044B9C
:1007280070471346E9E700BF600E0008F8B50C46AD
:1007380098B11649A1FB0023DB0803EB8302A0EB69
:100748004202303222702646012553B9092819D8A9
:10075800635D0BB100236355F8BD30230B70012591
:10076800F6E7A1FB0372D20802EB8207A3EB47036B
:10077800013530330A2D06F8013F1346E6D0002B29
:10078800EFD1E3E72046FFF79DFFE1E7CDCCCCCCE6
:1007980039493A4BD1F88820394842F47002C1F8F7
:1007A80088201A68002142F001021A6099601A68CC
:1007B80022F0847222F480321A6058601A6882B07B
:1007C80022F480221A60D960009101911A6842F4DB
:1007D80080321A601A4603E0009BB3F5A06F09D077
:1007E800136803F400330193009B01330093019BCA
:1007F800002BF1D0214B1B6813F4003318BF0123E1
:100808000193019B012B05D01B4B4FF000629A60AE
:1008180002B07047194B1B491A6C1B4842F08052B2
:100828001A640A6842F480420A609A689A609A6870
:1008380042F400429A609A6842F4A0529A60586062
:100848001A6842F080721A601A4611680B4B8901C7
:10085800FBD50E4A40F2056111609A6822F0030246
:100868009A609A6842F002029A601A46936803F006
:100878000C03082BFAD1C7E700ED00E0003802406E
:10088800103000240070004008544007003C02402B
:100898001848836803F00C03042B28D0082B09D0D0
:1008A800154B144A15499268C2F303128A5CD34067
:1008B8000B6170474368416813F4800F436818BFA1
:1008C8000F4801F03F020CBF0B49B0FBF2F1C3F334
:1008D800881308BFB1FBF2F101FB03F2054B5B681B
:1008E800C3F3014301335B00B2FBF3F3D9E7044BD5
:1008F800D7E700BF003802400024F40004000020BD
:1009080000127A0040F0BF60024B40F40030D8601B
:10091800704700BF00ED00E0C3785BB90378184862
:100928005A09203203F01F03012101FA03F340F8AA
:1009380022307047134BF0B4D9684778827804782E
:100948000F4EC943C1F30221C1F10405EDB20F23D3
:1009580007FA05F50B41EDB213402B4304F1604251
:1009680002F561421B01DBB282F8003303780122F1
:1009780003F01F015B098A4046F82320F0BC70474A
:1009880000E100E000ED00E021F0604121F07F018E
:10099800014B08439860704700ED00E0044A136972
:1009A80019B923EA000010617047184310617047B5
:1009B80000ED00E0044A136804280CBF43F0040368
:1009C80023F004031360704710E000E0C40E000831
:1009D8000000002044040020480400207005002086
:1009E8002DE9F047C2B000240DF108092146FB2289
:1009F80003A88DF80640C9F8004000F0FDF8484803
:100A08008DF8074003684749474A484D484CDFF886
:100A1800288123F0030303600B6B43F008030B6387
:100A2800136843F080434FF47A701360FFF7F8FDC2
:100A38004FF4E1302F462646FFF77AFD95F803215B
:100A48002B789A42FAD20DF106020DF107014846B9
:100A5800FFF78AFC0028F1D0D7F80401B0B99DF857
:100A680007109DF80630994253D28B4208DB0133B8
:100A78004B4409EB010E13F8012D5A707345FAD156
:100A880095F803312B441B7909F8013095F80331A7
:100A98000133A8FB031203EBD21303F0FF0385F81D
:100AA800033123881A06FCD50D23B38099F800205A
:100AB800494642B123881B06FCD592B2B28011F890
:100AC800012F002AF6D19DF807A09DF806C0E2453F
:100AD80038BFD64610D217491B2223881B06FCD5DF
:100AE80092B2B28011F8012F002AF6D10EF1010E50
:100AF8005FFA8EFEE645EED138B90AF1010A0CF12B
:100B0800010C8DF807A08DF806C00023C5F8043144
:100B180094E797F803313B441B7909F80130B5E7AE
:100B28000000024000380240000C0240640400202B
:100B380000440040780E000881808080002103E096
:100B48000B4B5B58435004310A480B4B42189A42EE
:100B5800F6D30A4A02E0002342F8043B084B9A42C3
:100B6800F9D3FFF715FE00F01FF8FFF739FF7047BC
:100B7800C40E00080000002044040020480400209F
:100B880070050020FEE7000008B50021044600F0CB
:100B98008BF8044B1868C36B03B19847204600F0E4
:100BA80083F900BF900E000870B50F4E0F4D761BED
:100BB800B61018BF002405D0013455F8043B9847F7
:100BC800A642F9D10A4E0B4D761B00F061F9B6101A
:100BD80018BF002406D0013455F8043B9847A642B4
:100BE800F9D170BD70BD00BFB80E0008B80E00087E
:100BF800C00E0008B80E000870B4840746D0541E12
:100C0800002A41D0CDB2034602E0621EE4B3144686
:100C180003F8015B9A07F8D1032C2ED9CDB245EA27
:100C280005250F2C45EA054519D903F1100226467A
:100C3800103E0F2E42F8105C42F80C5C42F8085C3B
:100C480042F8045C02F11002F2D8A4F1100222F07A
:100C58000F0204F00F041032032C13440DD91E4662
:100C68002246043A032A46F8045BFAD8221F22F0E7
:100C780003020432134404F003042CB1C9B21C4427
:100C880003F8011BA342FBD170BC7047144603460E
:100C9800C2E700BF024B13B1024800F071B87047B9
:100CA80000000000950D00082DE9F04F324B85B08B
:100CB8001B68029303F5A47301900E460393029BED
:100CC800D3F848713FB3DDF80CA04FF00109D346C3
:100CD8007C68651E0ED4013407EB84044FF00008CD
:100CE800E6B1D4F800319E4218D0013D6B1CA4F146
:100CF8000404F5D1214B73B17B68002B36D13B68D6
:100D0800002B34D03846CBF80030AFF30080DBF846
:100D18000070002FDCD105B0BDE8F08F7B68226839
:100D2800013BAB420CBF7D60C4F80080002ADCD0D8
:100D3800D7F88811D7F804A009FA05F30B420FD0A9
:100D4800D7F88C110B420DD1D4F880100198904738
:100D58007B685345B3D1DBF80030BB42C5D0AEE762
:100D68009047F5E7D4F880009047F1E73B68BB4629
:100D78001F46002FACD1CEE7900E000800000000FF
:100D8800002301461A46184600F014B838B5074D36
:100D9800074C2C1BA41005D0013C55F8043D98477E
:100DA800002CF9D1BDE8384000F078B8C40E00082E
:100DB800C00E00082DE9F047254C2568D5F84841B4
:100DC8000646884692469946C4B360681F2817DCD1
:100DD800431C76B104EB80050122C5F888A0D4F83D
:100DE800881182401143022EC4F88811C5F8089171
:100DF8001ED00230636044F820800020BDE8F087F0
:100E0800144B03B34FF4C870AFF300800446D0B15D
:100E1800D5F84831002780E88800C5F848413846A9
:100E28000123C4F88871C4F88C71002EE1D0D1E791
:100E3800D4F88C110A43C4F88C21DAE705F5A674B6
:100E4800C5F84841C1E74FF0FF30BDE8F08700BF63
:100E5800900E0008000000000000000000000000E4
:100E6800000000000D0A00001B5B31430000000079
:100E78001B5B3144000000001B5B3144201B5B31CD
:100E8800440000004300000018000020000000009B
:100E9800F8B500BFF8BC08BC9E467047F8B500BF5F
:080EA800F8BC08BC9E4670472F
:080EB0007CF3FF7F010000004C
:080EB8009D0C0008F501000883
:040EC000CD01000858
:100EC4000000000000000000000000000102030414
:100ED40006070809007A030A000000000403002042
:100EE4006C030020D4030020000000000000000078
:100EF40000000000000000000000000000000000EE
:100F04000000000000000000000000008C0E00083B
:100F140000000000000000000000000000000000CD
:100F240000000000000000000000000000000000BD
:100F340000000000000000000000000000000000AD
:100F4400000000000000000000000000000000009D
:100F5400000000000000000000000000000000008D
:100F6400000000000000000000000000000000007D
:100F7400000000000000000000000000000000006D
:100F840001000000000000000E33CDAB34126DE60A
:100F9400ECDE05000B000000000000000000000073
:100FA400000000000000000000000000000000003D
:100FB400000000000000000000000000000000002D
:100FC400000000000000000000000000000000001D
:100FD400000000000000000000000000000000000D
:0413040018000020AD
:0413080000000000E1
:0400000508000B459F
:00000001FF
